:100000000200E4020203000000000002020B0000F4
:10001000000000020213000000000002021B0000AA
:10002000000000020223000000000002022B00007A
:10003000000000020233000000000002023B00004A
:10004000000000020243000000000002024B00001A
:10005000000000020253000000000002025B0000EA
:10006000000000020263000000000002026B0000BA
:10007000000000020273000000000002027B00008A
:10008000000000020283000000000002028B00005A
:10009000000000020293000000000002029B00002A
:1000A0000000000202A300000000000202AB0000FA
:1000B0000000003099FDC299F599223098FDC29850
:1000C000E599225389F1438901758C00758A00C234
:1000D0008DD28C309805C298E59922308D04C28C5F
:1000E000410080EF75FFDE75FFAD75E10475E340FB
:1000F00075B1677F0A7E64DEFEDFFAE5B130E7FBAB
:1001000075B208759852758920758DF3D28E438724
:100110008011C364A560024100745A11B311C36415
:10012000616002410011C3646D6002410011C3644B
:10013000726002410074A511B311BB70024100B49A
:100140003F0280044002743EFF75B689758F0390AC
:100150000200F005830583DFF9FF745A11B3758F30
:10016000019002007E0011BBF0A311BBF0A3DEF6EC
:10017000EF11B3DFEF758F0011BB410000000000ED
:10018000000000000000000000000000000000006F
:10019000000000000000000000000000000000005F
:1001A000000000000000000000000000000000004F
:1001B000000000000000000000000000000000003F
:1001C000000000000000000000000000000000002F
:1001D000000000000000000000000000000000001F
:1001E000000000000000000000000000000000000F
:1001F00000000000000000000000000000000000FF
:100200000204B7020000000000000002000000002D
:1002100000000002000000000000000200000000DA
:1002200000000002000000000000000200000000CA
:1002300000000002000000000000000200000000BA
:1002400000000002000000000000000200000000AA
:10025000000000020000000000000002000000009A
:10026000000000020000000000000002000000008A
:10027000000000020000000000000002000000007A
:10028000000000020000000000000002000000006A
:10029000000000020000000000000002000000005A
:1002A000000000020000000000000002000000004A
:1002B0000000002218A60218F6220808E6088602A6
:1002C000082251B4D002D0E022F46302FF22CA22F5
:1002D0000470010A22240250010A2270011A142219
:1002E00051B4D083D082E493FAA3E493A3C082C034
:1002F0008322880109C6CAC7CA22A90051B4E709E6
:10030000870222F9E77A0022F9E7FA09E722F9E6FB
:100310000808F741BCF951BCCAF7EA09F741BCF536
:10032000828A83E07A0022F5828A83E0FAA3E022BF
:10033000F5828A83E60808F041BCF5828A8386024A
:1003400008E608F0A3EAF041BCCA7003CA6103CA18
:10035000F5828A83E4FA9322CA7003CA6108CAF557
:10036000828A83E493FA7401932226CA0836CA0863
:100370002256CA0856CA082246CA0846CA08226631
:10038000CA0866CA0822C3C696CA08C696CA082200
:10039000C333CA33CA22CAA2E713CA13228AF0306F
:1003A000F70451C941D022C002AC02C0E0F5F0868A
:1003B0000708E6CFC007C0E0A4F6AEF0D0F0ECA48A
:1003C0002EFE500205F0ADF0D0F0D0E0A42EC618FD
:1003D000F6ED35F0FDE4500104FCD0F0EFA42DFA69
:1003E000EC35F0CA2271A741BC8AF0FB860508866D
:1003F0000408860708860608C0007810C3EF33FF9C
:10040000EE33FEED33FDEC33FC92F0C3ED9BF9ECE3
:100410009AB0F040040FFCE9FD18E870DFD000ED61
:100420008C0218A60218F6EF8E02228AF0A2F79527
:10043000E0FA22717F4A24FF95E0F4FA2251F2C3D8
:10044000C696EA08C6960895E0FA2251F2C3C69607
:10045000EA086480C66480960895E0FA22D083D0CA
:1004600082C0E0C00251BCC082C08322D083D0824F
:1004700051B4D002D0E0C082C0832251B4A9811906
:1004800019870219E722C0E0C00241BC4A24FFD00C
:1004900002D0E0500451D58186715F8186916C91C4
:1004A0006C51DB51B49135918C04B151BC51D58163
:1004B00086915D715F8186C2AF75817F780075A876
:1004C0000002055C3099FDC299F59941BC3098FD58
:1004D000C29851B4E5997A002251B4A29895E07A75
:1004E000002251FA51FA914B918C04EE51F241BC29
:1004F00051FA51FA914D918C04FC51F241BC51B426
:10050000E820E704E414FA227002FA22F4C3137A12
:10051000002251B47190716A916C716A818618A63B
:100520000218F6D083D082E5828583020470010A26
:1005300018A60218F6E4FA9351FA51FA716AC0E06B
:10054000C002E6088602082291CD91CD51CE616AA3
:10055000B148818602B30548055002B351E0000757
:1005600091C491CD51B454FC5302FF918C05737426
:10057000007A0051B4716A51E00554716A715F915B
:100580008691FE912B918C059151E0003F91C49191
:10059000B7A15C51E0000D91C451E0000A81C45143
:1005A000B451D051F26149915DB19F91C4919D05C3
:1005B000A941BC540F2490D43440D422B1B381C497
:1005C00051B47196719671967196B1BCA1BC51B43B
:1005D00051CEB1C0B1C051E0002081C451E0FFFF55
:1005E00051F251E0000051E0000A71E9B400F3BAA1
:1005F00000F051BCB1BC8AF030F7F941BC8AF03050
:10060000F708719D51E0002D91C4B1DCA1D651E0F5
:100610000004915D51B451E08000717191359135C4
:1006200051E00001717151E00030716A91C4719024
:10063000919D061422D10E51E0003A91C4C10E5191
:10064000CED13551BCA1D6D13551E0003A91C4D1BB
:100650003551BCA1D651FA540F530200918C067A41
:10066000B19351FAB1CE51FA540F53020051B47103
:1006700090716AB1D6D5E0FB51BC915D51B4540F75
:100680005302009135918C068FB19351B4B1CEB124
:100690009FB1D4919D067C41BC51B451E0000171E1
:1006A0006A51F2611F51FA540F530200918C06CA2D
:1006B000B19351FAB1CE51FA540F53020051B471B3
:1006C00090716AB1D6D5E0FB51BC915D51B4540F25
:1006D0005302009135918C06DFB19351B4B1CED164
:1006E00099B1D4919D06CC41BC915D51E0003C9103
:1006F000C491FEB1DC51E0003E91C4B1D691FEB48C
:100700000009BA00061581158141BC912B918C0717
:1007100016158115812291FE51E00001914B918CBB
:10072000074851E000FC91FE51DB51DB915D51B473
:10073000715851CE916C917B51F2915D918651DB54
:1007400051DB919D072E51BC51B4916C818651E0D3
:1007500005FDC1E951E005CEC1E951E0060AC1E954
:1007600078002251B4E581C3947F137A0041DBB154
:100770001E02523CB1A7F16351DBB1DCB11E023E57
:1007800020B1A751E00080F16351DB51B491359164
:100790008C079541BA915D51B4715851CEB1CE518B
:1007A000E00002716A919D079741BC0000000000C3
:1007B0000000000000000000000000000000000039
:1007C0000000000000000000000000000000000029
:1007D0000000000000000000000000000000000019
:1007E0000000000000000000000000000000000009
:1007F00000000000000000000000000000000000F9
:00000001FF
