:1000000002020000000000000000000000000000EC
:1000100000000000000000000000000000000000E0
:1000200000000000000000000000000000000000D0
:1000300000000000000000000000000000000000C0
:1000400000000000000000000000000000000000B0
:1000500000000000000000000000000000000000A0
:100060000000000000000000000000000000000090
:100070000000000000000000000000000000000080
:100080000000000000000000000000000000000070
:100090000000000000000000000000000000000060
:1000A0000000000000000000000000000000000050
:1000B0000000000000000000000000000000000040
:1000C0000000000000000000000000000000000030
:1000D0000000000000000000000000000000000020
:1000E0000000000000000000000000000000000010
:1000F0000000000000000000000000000000000000
:1001000000000000000000000000000000000000EF
:1001100000000000000000000000000000000000DF
:1001200000000000000000000000000000000000CF
:1001300000000000000000000000000000000000BF
:1001400000000000000000000000000000000000AF
:10015000000000000000000000000000000000009F
:10016000000000000000000000000000000000008F
:10017000000000000000000000000000000000007F
:10018000000000000000000000000000000000006F
:10019000000000000000000000000000000000005F
:1001A000000000000000000000000000000000004F
:1001B000000000000000000000000000000000003F
:1001C000000000000000000000000000000000002F
:1001D000000000000000000000000000000000001F
:1001E000000000000000000000000000000000000F
:1001F00000000000000000000000000000000000FF
:10020000020467020000000000000002000000007D
:1002100000000002000000000000000200000000DA
:1002200000000002000000000000000200000000CA
:1002300000000002000000000000000200000000BA
:1002400000000002000000000000000200000000AA
:10025000000000020000000000000002000000009A
:100260000000002218A60218F6220808E6088602F6
:1002700008225164D002D0E022F46302FF22CA2295
:100280000470010A22240250010A2270011A142269
:100290005164D083D082E493FAA3E493A3C082C0D4
:1002A0008322880109C6CAC7CA22A9005164E70986
:1002B000870222F9E77A0022F9E7FA09E722F9E64C
:1002C0000808F7416CF9516CCAF7EA09F7416CF577
:1002D000828A83E07A0022F5828A83E0FAA3E02210
:1002E000F5828A83E60808F0416CF5828A838602EB
:1002F00008E608F0A3EAF0416CCA7003CA41B3CA29
:10030000F5828A83E4FA9322CA7003CA41B8CAF517
:10031000828A83E493FA7401932226CA0836CA08B3
:100320002256CA0856CA082246CA0846CA08226681
:10033000CA0866CA0822C3C696CA08C696CA082250
:10034000C333CA33CA22CAA2E713CA13228AF030BF
:10035000F7045179418022C002AC02C0E0F5F0867A
:100360000708E6CFC007C0E0A4F6AEF0D0F0ECA4DA
:100370002EFE500205F0ADF0D0F0D0E0A42EC6184D
:10038000F6ED35F0FDE4500104FCD0F0EFA42DFAB9
:10039000EC35F0CA227157416C8AF0FB860508865D
:1003A0000408860708860608C0007810C3EF33FFEC
:1003B000EE33FEED33FDEC33FC92F0C3ED9BF9EC34
:1003C0009AB0F040040FFCE9FD18E870DFD000EDB2
:1003D0008C0218A60218F6EF8E02228AF0A2F79578
:1003E000E0FA22712F4A24FF95E0F4FA2251A2C3C9
:1003F000C696EA08C6960895E0FA2251A2C3C696A8
:10040000EA086480C66480960895E0FA22D083D01A
:1004100082C0E0C002516CC082C08322D083D082EF
:100420005164D002D0E0C082C083225164A98119F6
:1004300019870219E722C0E0C002416C4A24FFD0AC
:1004400002D0E0500451858136710F8136911C91A4
:100450001C518B516471E5913C0461516C51858153
:1004600036910D710F8136C2AF75817F780075A806
:10047000000211E13099FDC299F599416C3098FD67
:10048000C2985164E5997A00225164A29895E07A65
:10049000002251AA51AA71FB913C049E51A2416CC9
:1004A00051AA51AA71FD913C04AC51A2416C516416
:1004B000E820E704E414FA227002FA22F4C3137A63
:1004C000002251647140711A911C711A813618A66C
:1004D0000218F6D083D082E5828583020470010A77
:1004E00018A60218F6E4FA9351AA51AA711AC0E0AC
:1004F000C002E60886020822917D917D517E611A34
:1005000091F88136026304F80500026351900007F8
:100510009174917D516454FC5302FF913C05237406
:10052000007A005164711A51900504711A710F918B
:100530003691AE71DB913C05415190003F91749131
:1005400067A10C5190000D91745190000A81745173
:1005500064518051A241F9910DB14F9174914D05B3
:1005600059416C540F2490D43440D422B163817427
:1005700051647146714671467146B16CA16C51640B
:10058000517EB170B1705190002081745190FFFF85
:1005900051A2519000005190000A7199B400F3BA31
:1005A00000F0516CB16C8AF030F7F9416C8AF03090
:1005B000F708714D5190002D9174B18CA186519026
:1005C0000004910D516451908000712171E571E535
:1005D00051900001712151900030711A9174714055
:1005E000914D05C422B1BE5190003A9174A1BE5103
:1005F0007EB1E5516CA186B1E55190003A9174B19C
:10060000E5516CA18651AA540F530200913C062A71
:10061000B14351AAB17E51AA540F530200516471E3
:1006200040711AB186D5E0FB516C910D5164540FA5
:1006300053020071E5913C063FB1435164B17EB174
:100640004FB184914D062C416C5164519000017161
:100650001A51A241CF51AA540F530200913C067A7D
:10066000B14351AAB17E51AA540F53020051647193
:1006700040711AB186D5E0FB516C910D5164540F55
:1006800053020071E5913C068FB1435164B17ED1B4
:1006900049B184914D067C416C910D5190003C9183
:1006A0007491AEB18C5190003E9174B18691AEB40C
:1006B0000009BA000615811581416C71DB913C0679
:1006C000C6158115812291AE5190000171FB913CBC
:1006D00006F8519000FC91AE518B518B910D5164F5
:1006E0007108517E911C912B51A2910D9136518B25
:1006F000518B914D06DE516C5164911C81365190A5
:1007000005ADC1995190057EC199519005BAC19925
:100710007800225164E581C3947F137A00418B9164
:10072000CE02523CB157F113518BB18C91CE023EA7
:1007300020B15751900080F113518B516471E591B4
:100740003C0745416A910D51647108517EB17E515B
:10075000900002711A914D0747416C12027211E923
:100760005190000822E4F508F509F50AF50B22512D
:10077000648174050822F16551900001917D5164F6
:100780005190002171FD913C078EB186416AF16F55
:10079000F17351AA5190000471FD913C07AA51AA2E
:1007A000F160711A51AA51A251BE516C51900001D1
:1007B000711AE17C22F16051900004910D51AA510F
:1007C000F951AA51F97136913C07D5516A519000FF
:1007D00000911C416C910D51900001711A911C51B6
:1007E000900001711A914D07BD516A5190FFFF228F
:1007F000F15B7108516451F9913C08215164120771
:10080000B512043C0817120290000412031A1203D6
:1008100008120290FFFF22120290000612031A80B3
:10082000D31202900000221204CE03204F6B120557
:100830005702054312026C1204CE02203F120557E4
:100840001205430204671204AE1203DB12043C08D3
:100850005301341207761207F012043C08651204A3
:1008600036112701460134120290000012047D1255
:10087000026412029000301203FD1202AA120290CA
:10088000003A1203FD1203E512032812043C0893F8
:1008900002026C12076F120290003012033612022D
:1008A000A2120290000A12039512031A016C227F11
:1008B00005DFFED5E0F902026C1202641203E512B4
:1008C000043C08C702026C120290000112033612A7
:1008D000029000FA11AF12029000FA11AF120290CA
:1008E00000FA11AF12029000FA11AF01B912029092
:1008F000000C22120290004C22F54C02026C054CB6
:100900002211F31202F91202BE01FE11F31202F9D2
:100910001202F901FE12029000012212029000025E
:100920002212029000042212029000082212029069
:10093000004D221202900086312D0202BE1202905A
:100940000088312D0202BE1202900089312D020270
:10095000BE53D9BF43A41443F1FF75E20375E340CE
:1009600075B217758E00759812758920758D96D29F
:100970008E2243F10743A40743800743E3402260EC
:1009800004D2818002C28112026CD280C28022D243
:100990008022C28022120264E430830114FA2231E0
:1009A000951203211202A21203460203286005D207
:1009B0008202026CC28202026C1202641202900075
:1009C0000112032131AD0203461202900001317F72
:1009D000318A318A318A318A1202900000217F12D5
:1009E00002900001317F1202900001317F120290CB
:1009F0000000217F1202900001317F12029000015D
:100A0000317F1202900000317F1202900000217F9E
:100A10001202900001317F1202900000317F120219
:100A2000900000217F31F4120290000F12040D316A
:100A3000B9318A12044D0A2F31B912026C21DF122A
:100A4000029010045125120290000031B912026C7C
:100A500051101202900000120290001012040D12A8
:100A600002908000319F318A12044D0A5F12029079
:100A70000000120290000F12040D1202908000314B
:100A80009F318A12044D0A7A1202908000319F2110
:100A9000DF1202900FFF41251202901FFF41251225
:100AA00002902FFF41251202904FFF412531C9517D
:100AB0009F413F120290000031B912026C51101296
:100AC000029000001202900001319F21DF51B31209
:100AD00003E512043C0ACD225110120290000231AB
:100AE000B9318A31B912026C21DF51D851CD511080
:100AF00012029000001202900000319F318A12020F
:100B000090000712040D1202900080319F318A126A
:100B1000044D0B061202900080319F21DF51D85105
:100B2000CD511012029000001202900000319F314E
:100B30008A120290000F12040D1202908000319F61
:100B4000318A12044D0B391202908000319F21DF4F
:100B50001202904082512541EA12029040855125AF
:100B600041EA12029040845125611D120290408397
:100B7000512551D851CD511012029000001202900F
:100B80000000319F318A1202900000319F318A1299
:100B900002900000319F318A120290000712040D6A
:100BA0001202900080319F318A12044D0BA0120274
:100BB000900080319F21DF1202904083512551D84F
:100BC00051CD511012029000001202900000319F8E
:100BD000318A120290FFFF319F21DF71B71203E5C6
:100BE00012043C0BDB225110120290000812040D7B
:100BF00031B9318A12044D0BF012026C12029000CE
:100C00000331B9318A31B912026C21DF511012025D
:100C100090001012040D31B9318A12044D0C1612D5
:100C2000026C120290000331B9318A31B912026CA0
:100C300021DF1202904085512561E6120290408228
:100C4000512561E612029040845125810C120290D8
:100C50004083512561E61202900002913B716B12B4
:100C6000026C1202900000913B71DB616B312D121E
:100C700002F991328144916D815651981202A291EC
:100C80006D120290000012029000101203991202DD
:100C9000A212043C0C9E120290000112031A1204CC
:100CA0000D120543120290001012040D9156120508
:100CB0008412044D0CAC12044D0CA12212054312F7
:100CC0000290001012040D915612058412044D0C6E
:100CD000C7221202900200120395120352120290D0
:100CE0001C0002031A120290020002039591E51201
:100CF00002900200817A81ED91D2120290002012BE
:100D0000040D120543120290001012040D12054F3B
:100D100012058412044D0D0D12044D0D0202026CD9
:100D200081F81202900010913B914D120290000048
:100D3000913B61DB916DA122916D12029000209197
:100D40003B12029000A5914D1202900000913B6170
:100D5000DB1202900000A1381202907DFFA13875CD
:100D60008F01F5838A8212026C75B7A575B7F1F011
:100D7000758F0002026C020300758F03F5838A826F
:100D800075B7A575B7F1F0758F0002026C12040DEE
:100D900012044D0D902291E5916D91D212029002B4
:100DA0000012040D120264B1769156120336120439
:100DB0003C0DBF12041C12026A12029000002212A3
:100DC0000290000112031A12044D0DA412026C12BB
:100DD0000290FFFF2211ED11F9120290004012045F
:100DE0000D12047D310112044D0DE12211ED11F9B6
:100DF000120290004012040D310BB12212044D0D6D
:100E0000F822120290000812040DB1D5B1EC1202C2
:100E100090000012047412044D0E0A225198B15829
:100E20001202900041120474519812029000009135
:100E30006D12047D12040DD10212044D0E372212E0
:100E40000290004E221202900000120264D13F1262
:100E500002BE120290000012057E91F6020543D1F7
:100E60003F1202F9120290000112031A120264D119
:100E70003F1202BE12026412029002001203951287
:100E8000057E91F602054312029000402212029064
:100E900000802243A480C287120290002811AFD2A2
:100EA000872243A480C287D28722D28653A4BFC29E
:100EB00087D28753A47F22C287D287A2865001227D
:100EC00080F5120264E4FA7F08C287D287A28613F3
:100ED000DFF72243A440139286C287D287139286FB
:100EE000C287D28702026C7F08139286C287D2879C
:100EF000DFF702026CC287D28722D28653A4BF22B8
:100F0000D1A21202900003D1D3D1E7C1AAD1A2127B
:100F100002900002D1D3D1FAD1C2C1AAD1A2120249
:100F2000900000D1D31202900000D1D6D1FAD1B7EF
:100F3000D1C2C1AAD1A21202900001D1D312029053
:100F40000000D1D6D1E7D1FAD1B7C1AA12029000E0
:100F500000F100120290000511AFE11C1202900096
:100F6000022212029000B422F10D1202900002122D
:100F7000032112043C0F79E16822F10D1202900066
:100F80000112032112043C0F8A22E17A120290001E
:100F90002E020474D193120290000511AFF15CF19E
:100FA000001202900002F1341202900001F134129A
:100FB0000290002801B9AF027A00120264EF2212F7
:100FC00002900006221202900007221202900008EE
:100FD00022120290000322120290003F020474F1D8
:100FE0007AE11CF134E168F194F162F100F1BFF1B2
:100FF000E3F1DF120290000D12033612043C1003DD
:10100000020FD7120FB6120FE3120FE31202900075
:1010100000120FE3120FDF120290000D12033612BE
:10102000043C1027020FD7120290010012040D1287
:10103000042B120290000F1203211203E512043C4C
:10104000104A120290000A120474120FDF12058473
:1010500012044D102F22120E3F1202F912029000BC
:101060000112031A120264120E3F1202BE12029003
:10107000010012039512026412057E020FE71202AC
:10108000900000120E3F1202BE12029000001205E4
:101090007E1202900000020FE7120F94120F6212EC
:1010A0000F00120FD1120FE3120FDF120290000D8A
:1010B00012033612043C10BB020FD712029000DE5E
:1010C000120FE312029000AD120FE312029000A57E
:1010D000120FE3020F7A120F62120F00120FC512E5
:1010E0000FE3120FDF120290000D12033612043CC0
:1010F00010F5020FD7120FB6120FE3120FE3120210
:10110000900040120FE3120FDF120290000D120345
:101110003612043C1119020FD71208ED1208F91209
:101120000290004012040D12090B120FE312044D3D
:101130001127020F7A120290000812040D120DD529
:1011400012026411D6120290004012031A12029089
:10115000000012047412044D113D221199120290E4
:101160000041120474120290000012047D12040D5A
:10117000313512044D117002026C120972120947C6
:101180000209C9B282223183120290000A120D8D27
:101190002186120290000A1208AF318312029000D9
:1011A0000A1208AF31832192317A120F1C12026C9D
:1011B00012029000641208AF21AA22317A120F0D98
:1011C00012026C12029000641208AF21BD22317A23
:1011D000120F4C12026C12029000641208AF21D060
:1011E00022120951317A0208460A433264115B0720
:1011F000433265109906433264107E0643326E1006
:1012000056046E65780E5F0464756D0E45046A744D
:10121000610E1C07636F6D0D96026340000D760230
:101220006321000D5F096572610D58066572610DDD
:1012300051026C73000CF8027273000CED046475BB
:101240006D0C7A077375730AA6057265730A9F049D
:1012500068616C0A980372756E0A9102692100092F
:10126000AD026F40000995022D6B000992022B6BB5
:1012700000098F01730000097F0532346D094705AD
:1012800031316D093D04326D680933012D000003D1
:1012900036012A00000395012B0000031A0473771E
:1012A0006102A20464726F026C03647570026401CF
:1012B0002E000005AD022E730006FE01230000087B
:1012C00067000000000000000000000000000000B7
:1012D000000000000000000000000000000000000E
:1012E00000000000000000000000000000000000FE
:1012F00000000000000000000000000000000000EE
:1013000000000000000000000000000000000000DD
:1013100000000000000000000000000000000000CD
:1013200000000000000000000000000000000000BD
:1013300000000000000000000000000000000000AD
:10134000000000000000000000000000000000009D
:10135000000000000000000000000000000000008D
:10136000000000000000000000000000000000007D
:10137000000000000000000000000000000000006D
:10138000000000000000000000000000000000005D
:10139000000000000000000000000000000000004D
:1013A000000000000000000000000000000000003D
:1013B000000000000000000000000000000000002D
:1013C000000000000000000000000000000000001D
:1013D000000000000000000000000000000000000D
:1013E00000000000000000000000000000000000FD
:1013F00000000000000000000000000000000000ED
:00000001FF
