:10000000020094020203000000000002020B000044
:10001000000000020213000000000002021B0000AA
:10002000000000020223000000000002022B00007A
:10003000000000020233000000000002023B00004A
:10004000000000020243000000000002024B00001A
:10005000000000020253000000000002025B0000EA
:100060000000003099FDC299F599223098FDC298A0
:10007000E599225389F1438901758C00758A00C284
:100080008DD28C309805C298E59922308D04C28CAF
:10009000410080EF53D9BF43A41443F1FF75E2033D
:1000A00075E34075B217758E0075981275892075C5
:1000B0008D96D28E117364A5600FB282E4FFFE7D2F
:1000C0000ADFFEDEFCDDFA80F1745A1163117364FD
:1000D00061600FB282E4FFFE7D0ADFFEDEFCDDFA26
:1000E00080F11173646D600FB282E4FFFE7D0ADF60
:1000F000FEDEFCDDFA80F111736472600FB282E4FF
:10010000FFFE7D0ADFFEDEFCDDFA80F174A51163DF
:10011000116B700FB282E4FFFE7D0ADFFEDEFCDDB4
:10012000FA80F1B43F0280044002743EFF758F03F1
:1001300090020075B7A575B7F1F005830583DFF36D
:10014000FF745A1163758F019002007E00116B7568
:10015000B7A575B7F1F0A3116B75B7A575B7F1F039
:10016000A3DEEAEF1163DFE3758F00116B4100003E
:10017000000000000000000000000000000000007F
:10018000000000000000000000000000000000006F
:10019000000000000000000000000000000000005F
:1001A000000000000000000000000000000000004F
:1001B000000000000000000000000000000000003F
:1001C000000000000000000000000000000000002F
:1001D000000000000000000000000000000000001F
:1001E000000000000000000000000000000000000F
:1001F00000000000000000000000000000000000FF
:10020000020467020000000000000002000000007D
:1002100000000002000000000000000200000000DA
:1002200000000002000000000000000200000000CA
:1002300000000002000000000000000200000000BA
:1002400000000002000000000000000200000000AA
:10025000000000020000000000000002000000009A
:100260000000002218A60218F6220808E6088602F6
:1002700008225164D002D0E022F46302FF22CA2295
:100280000470010A22240250010A2270011A142269
:100290005164D083D082E493FAA3E493A3C082C0D4
:1002A0008322880109C6CAC7CA22A9005164E70986
:1002B000870222F9E77A0022F9E7FA09E722F9E64C
:1002C0000808F7416CF9516CCAF7EA09F7416CF577
:1002D000828A83E07A0022F5828A83E0FAA3E02210
:1002E000F5828A83E60808F0416CF5828A838602EB
:1002F00008E608F0A3EAF0416CCA7003CA41B3CA29
:10030000F5828A83E4FA9322CA7003CA41B8CAF517
:10031000828A83E493FA7401932226CA0836CA08B3
:100320002256CA0856CA082246CA0846CA08226681
:10033000CA0866CA0822C3C696CA08C696CA082250
:10034000C333CA33CA22CAA2E713CA13228AF030BF
:10035000F7045179418022C002AC02C0E0F5F0867A
:100360000708E6CFC007C0E0A4F6AEF0D0F0ECA4DA
:100370002EFE500205F0ADF0D0F0D0E0A42EC6184D
:10038000F6ED35F0FDE4500104FCD0F0EFA42DFAB9
:10039000EC35F0CA227157416C8AF0FB860508865D
:1003A0000408860708860608C0007810C3EF33FFEC
:1003B000EE33FEED33FDEC33FC92F0C3ED9BF9EC34
:1003C0009AB0F040040FFCE9FD18E870DFD000EDB2
:1003D0008C0218A60218F6EF8E02228AF0A2F79578
:1003E000E0FA22712F4A24FF95E0F4FA2251A2C3C9
:1003F000C696EA08C6960895E0FA2251A2C3C696A8
:10040000EA086480C66480960895E0FA22D083D01A
:1004100082C0E0C002516CC082C08322D083D082EF
:100420005164D002D0E0C082C083225164A98119F6
:1004300019870219E722C0E0C002416C4A24FFD0AC
:1004400002D0E0500451858136710F8136911C91A4
:100450001C518B516471E5913C0461516C51858153
:1004600036910D710F8136C2AF75817F780075A806
:100470000002050C3099FDC299F599416C3098FD48
:10048000C2985164E5997A00225164A29895E07A65
:10049000002251AA51AA71FB913C049E51A2416CC9
:1004A00051AA51AA71FD913C04AC51A2416C516416
:1004B000E820E704E414FA227002FA22F4C3137A63
:1004C000002251647140711A911C711A813618A66C
:1004D0000218F6D083D082E5828583020470010A77
:1004E00018A60218F6E4FA9351AA51AA711AC0E0AC
:1004F000C002E60886020822917D917D517E611A34
:1005000091F88136026304F80500026351900007F8
:100510009174917D516454FC5302FF913C05237406
:10052000007A005164711A51900504711A710F918B
:100530003691AE71DB913C05415190003F91749131
:1005400067A10C5190000D91745190000A81745173
:1005500064518051A241F9910DB14F9174914D05B3
:1005600059416C540F2490D43440D422B163817427
:1005700051647146714671467146B16CA16C51640B
:10058000517EB170B1705190002081745190FFFF85
:1005900051A2519000005190000A7199B400F3BA31
:1005A00000F0516CB16C8AF030F7F9416C8AF03090
:1005B000F708714D5190002D9174B18CA186519026
:1005C0000004910D516451908000712171E571E535
:1005D00051900001712151900030711A9174714055
:1005E000914D05C422B1BE5190003A9174A1BE5103
:1005F0007EB1E5516CA186B1E55190003A9174B19C
:10060000E5516CA18651AA540F530200913C062A71
:10061000B14351AAB17E51AA540F530200516471E3
:1006200040711AB186D5E0FB516C910D5164540FA5
:1006300053020071E5913C063FB1435164B17EB174
:100640004FB184914D062C416C5164519000017161
:100650001A51A241CF51AA540F530200913C067A7D
:10066000B14351AAB17E51AA540F53020051647193
:1006700040711AB186D5E0FB516C910D5164540F55
:1006800053020071E5913C068FB1435164B17ED1B4
:1006900049B184914D067C416C910D5190003C9183
:1006A0007491AEB18C5190003E9174B18691AEB40C
:1006B0000009BA000615811581416C71DB913C0679
:1006C000C6158115812291AE5190000171FB913CBC
:1006D00006F8519000FC91AE518B518B910D5164F5
:1006E0007108517E911C912B51A2910D9136518B25
:1006F000518B914D06DE516C5164911C81365190A5
:1007000005ADC1995190057EC199519005BAC19925
:100710007800225164E581C3947F137A00418B9164
:10072000CE02523CB157F113518BB18C91CE023EA7
:1007300020B15751900080F113518B516471E591B4
:100740003C0745416A910D51647108517EB17E515B
:10075000900002711A914D0747416C910D912BB198
:10076000AD914D075D220000000000000000000078
:100770000000000000000000000000000000000079
:100780000000000000000000000000000000000069
:100790000000000000000000000000000000000059
:1007A0000000000000000000000000000000000049
:1007B0000000000000000000000000000000000039
:1007C0000000000000000000000000000000000029
:1007D0000000000000000000000000000000000019
:1007E0000000000000000000000000000000000009
:1007F00000000000000000000000000000000000F9
:00000001FF
