:100000000200AC020203000000000002020B00002C
:10001000000000020213000000000002021B0000AA
:10002000000000020223000000000002022B00007A
:10003000000000020233000000000002023B00004A
:10004000000000020243000000000002024B00001A
:10005000000000020253000000000002025B0000EA
:10006000000000020263000000000002026B0000BA
:1000700000000002027300000000003099FDC299E8
:10008000F599223098FDC298E599225389F1438968
:1000900001758C00758A00C28DD28C309805C2988B
:1000A000E59922308D04C28C410080EF53D9BF43C3
:1000B000A41443F1FF75E10175E24075B2C3758E7A
:1000C00000759812758920758D96D28ED282118B0B
:1000D00064A5600FB282E4FFFE7D0ADFFEDEFCDD78
:1000E000FA80F1745A117B118B6461600FB282E463
:1000F000FFFE7D0ADFFEDEFCDDFA80F1118B646D10
:10010000600FB282E4FFFE7D0ADFFEDEFCDDFA80D6
:10011000F1118B6472600FB282E4FFFE7D0ADFFE94
:10012000DEFCDDFA80F174A5117B1183700FB282C1
:10013000E4FFFE7D0ADFFEDEFCDDFA80F1B43F0263
:1001400080044002743EFF758F0390020075B7A5CE
:1001500075B7F1F005830583DFF3FF745A117B75E2
:100160008F019002007E00118375B7A575B7F1F07D
:10017000A3118375B7A575B7F1F0A3DEEAEF117B84
:10018000DFE3758F001183410000000000000000D4
:10019000000000000000000000000000000000005F
:1001A000000000000000000000000000000000004F
:1001B000000000000000000000000000000000003F
:1001C000000000000000000000000000000000002F
:1001D000000000000000000000000000000000001F
:1001E000000000000000000000000000000000000F
:1001F00000000000000000000000000000000000FF
:1002000002047F0200000000000000020000000065
:1002100000000002000000000000000200000000DA
:1002200000000002000000000000000200000000CA
:1002300000000002000000000000000200000000BA
:1002400000000002000000000000000200000000AA
:10025000000000020000000000000002000000009A
:10026000000000020000000000000002000000008A
:1002700000000002000000000000002218A6021882
:10028000F6220808E60886020822517CD002D0E057
:1002900022F46302FF22CA220470010A22240250BF
:1002A000010A2270011A1422517CD083D082E49377
:1002B000FAA3E493A3C082C08322880109C6CAC7F7
:1002C000CA22A900517CE709870222F9E77A0022B5
:1002D000F9E7FA09E722F9E60808F74184F95184B9
:1002E000CAF7EA09F74184F5828A83E07A0022F5A9
:1002F000828A83E0FAA3E022F5828A83E60808F086
:100300004184F5828A83860208E608F0A3EAF04178
:1003100084CA7003CA41CBCAF5828A83E4FA932265
:10032000CA7003CA41D0CAF5828A83E493FA740181
:10033000932226CA0836CA082256CA0856CA082274
:1003400046CA0846CA082266CA0866CA0822C3C640
:1003500096CA08C696CA0822C333CA33CA22CAA29A
:10036000E713CA13228AF030F7045191419822C052
:1003700002AC02C0E0F5F0860708E6CFC007C0E097
:10038000A4F6AEF0D0F0ECA42EFE500205F0ADF0D5
:10039000D0F0D0E0A42EC618F6ED35F0FDE4500103
:1003A00004FCD0F0EFA42DFAEC35F0CA22716F41B5
:1003B000848AF0FB860508860408860708860608F6
:1003C000C0007810C3EF33FFEE33FEED33FDEC33A6
:1003D000FC92F0C3ED9BF9EC9AB0F040040FFCE9FD
:1003E000FD18E870DFD000ED8C0218A60218F6EFB9
:1003F0008E02228AF0A2F795E0FA2271474A24FF82
:1004000095E0F4FA2251BAC3C696EA08C696089552
:10041000E0FA2251BAC3C696EA086480C6648096A0
:100420000895E0FA22D083D082C0E0C0025184C097
:1004300082C08322D083D082517CD002D0E0C0829F
:10044000C08322517CA9811919870219E722C0E0D3
:10045000C00241844A24FFD002D0E05004519D8163
:100460004E7127814E9134913451A3517C71FD918D
:100470005404795184519D814E91257127814EC23A
:10048000AF75817F780075A8000205243099FDC200
:1004900099F59941843098FDC298517CE5997A008C
:1004A00022517CA29895E07A002251C251C2911348
:1004B000915404B651BA418451C251C2911591541C
:1004C00004C451BA4184517CE820E704E414FA22C0
:1004D0007002FA22F4C3137A0022517C71587132EF
:1004E00091347132814E18A60218F6D083D082E57D
:1004F000828583020470010A18A60218F6E4FA93B2
:1005000051C251C27132C0E0C002E6088602082220
:100510009195919551966132B110814E027B0510F3
:100520000518027B51A80007918C9195517C54FCD1
:100530005302FF9154053B74007A00517C71325193
:10054000A8051C71327127914E91C671F391540523
:100550005951A8003F918C917FA12451A8000D9181
:100560008C51A8000A818C517C519851BA6111912B
:1005700025B167918C916505714184540F2490D405
:100580003440D422B17B818C517C715E715E715E8E
:10059000715EB184A184517C5196B188B18851A813
:1005A0000020818C51A8FFFF51BA51A8000051A82A
:1005B000000A71B1B400F3BA00F05184B1848AF03A
:1005C00030F7F941848AF030F708716551A8002DA1
:1005D000918CB1A4A19E51A800049125517C51A8F1
:1005E0008000713971FD71FD51A80001713951A868
:1005F00000307132918C7158916505DC22B1D65171
:10060000A8003A918CA1D65196B1FD5184A19EB11A
:10061000FD51A8003A918CB1FD5184A19E51C25464
:100620000F53020091540642B15B51C2B19651C2C0
:10063000540F530200517C71587132B19ED5E0FBCA
:1006400051849125517C540F53020071FD91540641
:1006500057B15B517CB196B167B19C91650644413D
:1006600084517C51A80001713251BA41E751C25402
:100670000F53020091540692B15B51C2B19651C220
:10068000540F530200517C71587132B19ED5E0FB7A
:1006900051849125517C540F53020071FD915406F1
:1006A000A7B15B517CB196D161B19C916506944133
:1006B00084912551A8003C918C91C6B1A451A80009
:1006C0003E918CB19E91C6B40009BA000615811501
:1006D00081418471F3915406DE158115812291C602
:1006E00051A8000191139154071051A800FC91C624
:1006F00051A351A39125517C71205196913491437E
:1007000051BA9125914E51A351A3916506F651849A
:10071000517C9134814E51A805C5C1B151A80596AF
:10072000C1B151A805D2C1B1780022517CE581C385
:10073000947F137A0041A391E602523CB16FF12BF2
:1007400051A3B1A491E6023E20B16F51A80080F1FF
:100750002B51A3517C71FD9154075D41829125512C
:100760007C71205196B19651A800027132916507B3
:100770005F418436CA0836CA0822912551BA9125AC
:10078000713291349134E1738AF030F71251BA51D9
:100790009151BA519151A8000151A80000F17A225B
:1007A00071F3915407A8716A2251C2912551C25127
:1007B000C2714791259125F1889134716571B1918C
:1007C00034F1A051BA9134F1A041BA912551BA91B6
:1007D0003441BA51C2714771F39125912551C291AB
:1007E000349134F1CB7139915407F3F1CB7132511B
:1007F000BA41A3418451C29125C0E0C002F1A912BF
:1008000004341204340207D31202A800001202BA00
:100810000207F511080202841108080822120425B3
:1008200012036F1204341207F50808227F05DFFE59
:10083000D5E0F902028412027C1203FD120454086E
:10084000440202841202A8000112034E1202A80000
:10085000FA112C1202A800FA112C1202A800FA11A7
:100860002C1202A800FA112C013653D9BF43F1FF14
:1008700043A4CF75E10175E24022B282221202A8A0
:1008800003E811361202A803E811361202A803E8A1
:1008900001361202A8000822116A1202A8000011F3
:1008A000921202DD1202A800011202A80001120237
:1008B000A800011204A112045408FB117A1202A824
:1008C0000032113612049512048C11921203201278
:1008D00002A8000112033211921202DD11921203DA
:1008E000201202A8000A12041312045408FB120278
:1008F000A8000011921202DD12071601B322116A3C
:100900001202A8000011921202DD1202A8000112C8
:1009100002A800011202A80001117A1202A80032F6
:1009200011361202A8044C11361202A8002012043B
:100930008C1202A8002B12048C1202A80070120460
:100940008C1202A8007112048C1202A80072120408
:100950008C1202A8007312048C1202A800741204F4
:100960008C1202A8002012048C1192120320120291
:10097000A8000112033211921202DD11921203201B
:100980001202A8000A12041312045409C71202A882
:10099000000011921202DD1202A8003412048C121F
:1009A00002A8003412048C1202A8003412048C1223
:1009B00002A8003412048C1202A8003412048C1213
:1009C00002A8003412048C2119221202A80001127C
:1009D000028421CA12055B12055B1204E61A6E65D9
:1009E00061726F2032333A31397A2068656C6C6FEE
:1009F00020796F7520616C6C12056F12055B120512
:100A00005B1202A800370202840000000000000010
:100A100000000000000000000000000000000000D6
:100A200000000000000000000000000000000000C6
:100A300000000000000000000000000000000000B6
:100A400000000000000000000000000000000000A6
:100A50000000000000000000000000000000000096
:100A60000000000000000000000000000000000086
:100A70000000000000000000000000000000000076
:100A80000000000000000000000000000000000066
:100A90000000000000000000000000000000000056
:100AA0000000000000000000000000000000000046
:100AB0000000000000000000000000000000000036
:100AC0000000000000000000000000000000000026
:100AD0000000000000000000000000000000000016
:100AE0000000000000000000000000000000000006
:100AF00000000000000000000000000000000000F6
:100B000000000000000000000000000000000000E5
:100B100000000000000000000000000000000000D5
:100B200000000000000000000000000000000000C5
:100B300000000000000000000000000000000000B5
:100B400000000000000000000000000000000000A5
:100B50000000000000000000000000000000000095
:100B60000000000000000000000000000000000085
:100B70000000000000000000000000000000000075
:100B80000000000000000000000000000000000065
:100B90000000000000000000000000000000000055
:100BA0000000000000000000000000000000000045
:100BB0000000000000000000000000000000000035
:100BC0000000000000000000000000000000000025
:100BD0000000000000000000000000000000000015
:100BE0000000000000000000000000000000000005
:100BF00000000000000000000000000000000000F5
:00000001FF
